S01300006C696E6574726163652E632E73726563C9
S113000045C0000061C000005FC000005DC000008A
S11300105BC0000059C0000057C0000055C000007C
S113002053C0000051C000004FC000004DC000008C
S11300304BC0000049C0000047C0000045C000009C
S113004043C0000041C000003FC000003DC00000AC
S11300503BC0000039C0000037C0000035C00000BC
S113006033C0000031C000002FC000002DC00000CC
S11300702BC0000029C0000027C0000025C00000DC
S113008023C0000021C000001FC0000011241FBEB7
S1130090CFEFD0E1DEBFCDBF11E0A0E0B1E0E0E002
S11300A0F2E100E00BBF02C007900D92A830B10747
S11300B0D9F721E0A8E0B1E001C01D92A232B20755
S11300C0E1F72ED60C94FE089BCF6115710509F05B
S11300D07EC020911A0120952BBB4130510549F473
S11300E02EE023B919BC18BC81599E4F9BBD8ABD13
S11300F00AC0452B41F426E023B981599E4F99BD8E
S113010088BD9BBD8ABD2FEF49E688E12150404060
S11301108040E1F700C0000080911A0180958BBBFC
S113012010921B0110921A011092190110921801D9
S113013080E090E036C0282F206427B926B12064DF
S113014026B9349BFECF24B135B1309321012093DD
S113015020012A3C334024F120E830E0082E02C07C
S1130160359527950A94E2F740911A0150911B01A5
S1130170242B352B30931B0120931A0121E030E00E
S1130180082E02C0220F331F0A94E2F7409118018F
S113019050911901242B352B309319012093180108
S11301A00196883091053CF28091180190911901D3
S11301B0873E910539F0873F910521F08F3E9105E7
S11301C009F0AECF1BBC1ABC19BC18BC0895613031
S11301D0710509F079C04130510549F42BE023B988
S11301E01BBC1ABC81599E4F99BD88BD0AC0452BC2
S11301F041F429E023B981599E4F9BBD8ABD99BD25
S113020088BD8FEF99E628E1815090402040E1F7C6
S113021000C0000080911A0180958BBB10921B01D5
S113022010921A01109219011092180180E090E0C6
S113023036C0282F206427B926B1206426B9349B00
S1130240FECF24B135B130932101209320012A3C03
S1130250334024F120E830E0082E02C0359527957C
S11302600A94E2F740911A0150911B01242B352B7B
S113027030931B0120931A0121E030E0082E02C0C4
S1130280220F331F0A94E2F740911801509119018B
S1130290242B352B309319012093180101968830B3
S11302A091053CF28091180190911901873E9105C6
S11302B039F0873F910521F08F3E910509F0AACFCF
S11302C01BBC1ABC19BC18BC089510929B0088E092
S11302D080939A0096E090939D00109298008093EA
S11302E09900089590919B0095FFFCCF80939C000A
S11302F00895EF92FF920F931F93CF93DF937C01A6
S11303008B01C0E0D0E006C0F701EC0FFD1F808137
S1130310E9DF2196C017D107BCF3DF91CF911F917C
S11303200F91FF90EF9008958F929F92AF92BF929A
S1130330CF92DF92EF92FF920F931F93CF93DF93AD
S1130340CDB7DEB72E970FB6F894DEBF0FBECDBF84
S11303508C017B0110921301109212011092110171
S11303601092100110920F0110920E0187EE90E08E
S1130370909309018093080180911A0180958BBBA9
S11303808AE083B910921B0110921A01109219018C
S11303901092180110921701109216011092150173
S11303A01092140110920D0110920C0110920B0185
S11303B010920A0180E090E036C0282F206427B90B
S11303C026B1206426B9349BFECF24B135B13093D5
S11303D02101209320012A3C334024F120E830E01D
S11303E0082E02C0359527950A94E2F740911A0128
S11303F050911B01242B352B30931B0120931A01A0
S113040021E030E0082E02C0220F331F0A94E2F7E5
S11304104091180150911901242B352B3093190167
S1130420209318010196883091053CF240911801FF
S11304305091190150931501409314011092170122
S11304401092160112C09C0121503109822393237A
S113045090931501809314018091160190911701D6
S11304600196909317018093160180911401909145
S11304701501009741F78091160190911701059796
S113048034F481E090E090931101809310014F3F88
S1130490510541F48091080190910901909319014B
S11304A08093180180911801909119018F3E910554
S11304B009F40DC1ECF48F3B910509F470C05CF4B0
S11304C08F37910591F18F39910509F48EC0CF973B
S11304D009F03DC23EC08F3D910509F4ACC0873E92
S11304E0910509F41AC18F3C910509F030C2C9C0C5
S11304F08B3F910509F4B9C16CF4873F910509F468
S113050000C2893F910509F48AC1833F910509F02E
S11305101EC2D1C18D3F910509F45BC10CF433C1F6
S11305208E3F910509F41BC112C280911001909174
S11305301101019739F481E090E090930F018093C9
S11305400E0119C281E090E090930D0180930C019B
S113055012C28091100190911101019739F481E048
S113056090E090930F0180930E0105C28BE794E114
S1130570AEE2BEE38093040190930501A0930601CB
S1130580B093070180E090E0A0E8BFE3809300010E
S113059090930101A0930201B0930301ECC18091F7
S11305A0100190911101019739F481E090E090934A
S11305B00F0180930E01DFC18AE999E9A9E9BEE33D
S11305C08093040190930501A0930601B093070161
S11305D080E090E0A0E8BFE38093000190930101E4
S11305E0A0930201B0930301C6C1809110019091C0
S11305F01101019739F481E090E090930F01809309
S11306000E01B9C18FE195E8ABEEBEE3809304011E
S113061090930501A0930601B093070180E090E058
S1130620A0E8BFE38093000190930101A09302012D
S1130630B0930301A0C18091100190911101019721
S113064039F481E090E090930F0180930E0193C1FF
S113065083EC95EFA8E2BFE3809304019093050136
S1130660A0930601B093070180E090E0A0E8BFE307
S11306708093000190930101A0930201B0930301C0
S11306807AC18091100190911101019739F481E0B0
S113069090E090930F0180930E016DC18DEC9CEC62
S11306A0ACE4BFE38093040190930501A093060199
S11306B0B093070180E090E0A0E8BFE380930001DD
S11306C090930101A0930201B093030154C180915E
S11306D0100190911101019739F481E090E0909319
S11306E00F0180930E0147C183E393E3A3E7BFE3C4
S11306F08093040190930501A0930601B093070130
S113070080E090E0A0E8BFE38093000190930101B2
S1130710A0930201B09303012EC180911001909126
S11307201101019739F481E090E090930F018093D7
S11307300E0121C180E090E0A0E8BFE380930401B2
S113074090930501A0930601B093070180930001E3
S113075090930101A0930201B09303010CC1809115
S1130760100190911101019739F481E090E0909388
S11307700F0180930E01FFC081E090E090930B0184
S113078080930A01F8C080911001909111010197A2
S113079039F481E090E090930F0180930E01EBC057
S11307A080E090E0A0E8BFE380930401909305010A
S11307B0A0930601B09307018BE794E1AEE2BEE398
S11307C08093000190930101A0930201B09303016F
S11307D0D2C08091100190911101019739F481E008
S11307E090E090930F0180930E01C5C080E090E0EB
S11307F0A0E8BFE38093040190930501A093060150
S1130800B09307018AE999E9A9E9BEE3809300015D
S113081090930101A0930201B0930301ACC08091B5
S1130820100190911101019739F481E090E09093C7
S11308300F0180930E019FC080E090E0A0E8BFE329
S11308408093040190930501A0930601B0930701DE
S11308508FE195E8ABEEBEE3809300019093010134
S1130860A0930201B093030186C08091100190917E
S11308701101019739F481E090E090930F01809386
S11308800E0179C080E090E0A0E8BFE3809304010A
S113089090930501A0930601B093070183EC95EFB3
S11308A0A8E2BFE38093000190930101A0930201A9
S11308B0B093030160C080911001909111010197E0
S11308C039F481E090E090930F0180930E0153C0BE
S11308D080E090E0A0E8BFE38093040190930501D9
S11308E0A0930601B09307018DEC9CECACE4BFE34C
S11308F08093000190930101A0930201B09303013E
S11309003AC08091100190911101019739F481E06E
S113091090E090930F0180930E012DC080E090E051
S1130920A0E8BFE38093040190930501A09306011E
S1130930B093070183E393E3A3E7BFE3809300014C
S113094090930101A0930201B093030114C080E0CD
S113095090E0A0E0BFEB8093040190930501A09385
S11309600601B09307018093000190930101A093C5
S11309700201B093030180911801909119019093A1
S113098009018093080180910E0190910F01019754
S1130990E9F401591E4F1BBD0ABD19BD08BD80E015
S11309A090E00AC02FEF31EE44E021503040404047
S11309B0E1F700C0000001968E159F059CF31BBC57
S11309C01ABC19BC18BC8FE083B997C180910A0185
S11309D090910B01019709F06EC086E083B987E31B
S11309E092E09BBD8ABD99BD88BD80911A01809516
S11309F08BBB10921B0110921A01109219011092D4
S1130A00180180E090E036C0282F206427B926B171
S1130A10206426B9349BFECF24B135B13093210133
S1130A20209320012A3C334024F120E830E0082EB2
S1130A3002C0359527950A94E2F740911A01509126
S1130A401B01242B352B30931B0120931A0121E029
S1130A5030E0082E02C0220F331F0A94E2F74091BF
S1130A60180150911901242B352B3093190120932F
S1130A7018010196883091053CF2809118019091FB
S1130A801901873E910569F0873F910551F08F3E2A
S1130A90910539F0873C910521F0833E910509F0D9
S1130AA09CCF8AE083B9C80181599E4F9BBD8ABD02
S1130AB099BD88BDBFC080910C0190910D01019733
S1130AC009F06EC089E083B987E392E09BBD8ABDDB
S1130AD099BD88BD80911A0180958BBB10921B0132
S1130AE010921A01109219011092180180E090E0FE
S1130AF036C0282F206427B926B1206426B9349B38
S1130B00FECF24B135B130932101209320012A3C3A
S1130B10334024F120E830E0082E02C035952795B3
S1130B200A94E2F740911A0150911B01242B352BB2
S1130B3030931B0120931A0121E030E0082E02C0FB
S1130B40220F331F0A94E2F74091180150911901C2
S1130B50242B352B309319012093180101968830EA
S1130B6091053CF28091180190911901873E9105FD
S1130B7069F0873F910551F08F3E910539F0873C2C
S1130B80910521F0833E910509F09CCF8AE083B959
S1130B90C80181599E4F9BBD8ABD99BD88BD4AC07D
S1130BA0B801012E000C880B990B12D24B015C0189
S1130BB020910401309105014091060150910701F3
S1130BC06BD2D3D16B0170931F0160931E012091EE
S1130BD00001309101014091020150910301C501CE
S1130BE0B4015AD2C2D170931D0160931C017723C2
S1130BF01CF489E083B90EC0DD201CF486E083B9BF
S1130C0009C077232CF4DD201CF485E083B902C0ED
S1130C108AE083B980911C0190911D0181599E4FF6
S1130C2099BD88BD80911E0190911F0181599E4FED
S1130C309BBD8ABD80911801909119019A8789877B
S1130C4088B599B59C878B878AB59BB59E878D8718
S1130C50C12CD12C4AC0F601EE0FFF1F81E090E0B9
S1130C608C0F9D1FE80FF91F20853185C90160E1B4
S1130C7077E29DD20F2EF8EEAF2EF3E0BF2EF02DCB
S1130C80B50195D2F601EE0FFF1FEE0FFF1F81E0B5
S1130C9090E08C0F9D1FE80FF91F605D6083C90110
S1130CA0B50185D20F2EF4E6AF2EB12CF02DB5018F
S1130CB07ED2605D6183C901B50179D20F2EFAE05D
S1130CC0AF2EB12CF02DB50172D2605D6283C901E3
S1130CD0B5016DD2805D838364E070E0CF0109DBF0
S1130CE080E200DB9FEFC91AD90A23E0C216D104BF
S1130CF00CF4B1CF8DE0F6DA3FCB2E960FB6F89414
S1130D00DEBF0FBECDBFDF91CF911F910F91FF903A
S1130D10EF90DF90CF90BF90AF909F908F90089509
S1130D20D4DA8FEF8ABB1092610097E896B928E075
S1130D3021BB96B987BB8FE082B982EA8FBD89E176
S1130D408EBD8AE083B98FE193E097BD86BD80EACA
S1130D5090E09BBD8ABD99BD88BD64E070E08AEFD8
S1130D6090E0E2DA64E070E08AEF90E0DDDA64E0DB
S1130D7070E08AEF90E0D8DA40E050E061E070E0A3
S1130D808AEF90E0A2D964E070E08AEF90E0CCDAD8
S1130D9040E050E060E070E08AEF90E096D964E0D3
S1130DA070E08AEF90E0C0DA64E070E08AEF90E0EF
S1130DB0BBDA64E070E08AEF90E0B6DA40E050E03D
S1130DC060E070E08AEF90E080D964E070E08AEF40
S1130DD090E0AADA40E050E061E070E08AEF90E051
S1130DE074D964E070E08AEF90E09EDA40E050E06D
S1130DF061E070E08AEF90E068D964E070E08AEF27
S1130E0090E092DA64E070E08AEF90E08DDA40E0FE
S1130E1050E060E070E08AEF90E057D962E070E063
S1130E208AEF90E081DA62E070E08AEF90E07CDAA9
S1130E3062E070E08AEF90E077DA62E070E08AEFD7
S1130E4090E072DA62E070E08AEF90E06DDA62E0DE
S1130E5070E08AEF90E068DA60E070E08AEF90E09A
S1130E6063DA60E070E08AEF90E05EDA60E070E000
S1130E708AEF90E059DA60E070E08AEF90E054DAAB
S1130E8060E070E08AEF90E04FDA60E070E08AEFB3
S1130E9090E04ADA60E070E08AEF90E045DA60E0E2
S1130EA070E08AEF90E040DA60E070E08AEF90E072
S1130EB03BDA60E070E08AEF90E036DA60E070E000
S1130EC08AEF90E031DA60E070E08AEF90E02CDAAB
S1130ED060E070E080E991E027DA64E070E08AEF96
S1130EE090E022DA40E050E060E070E08AEF90E0C9
S1130EF0ECD860E070E08AEF90E016DA60E070E031
S1130F008AEF90E011DA81E090E00AC02FEF33ED30
S1130F1040E3215030404040E1F700C0000001961A
S1130F20843091059CF364E070E08AEF90E0FCD992
S1130F3040E050E060E070E08AEF90E0C6D840E026
S1130F4050E060E070E08AEF90E0BFD864E070E0C9
S1130F508AEF90E0E9D964E070E08AEF90E0E4D9A8
S1130F608FE083B980E090E0089504D06894B111D3
S1130F708DC0089570D088F09F5790F0B92F9927AD
S1130F80B751A0F0D1F0660F771F881F991F1AF090
S1130F90BA95C9F712C0B13081F077D0B1E00895A5
S1130FA074C0672F782F8827B85F39F0B93FCCF326
S1130FB0869577956795B395D9F73EF49095809586
S1130FC0709561957F4F8F4F9F4F0895E89409C0A6
S1130FD097FB3EF490958095709561957F4F8F4F68
S1130FE09F4F9923A9F0F92F96E9BB279395F6957E
S1130FF0879577956795B795F111F8CFFAF4BB0FFC
S113100011F460FF1BC06F5F7F4F8F4F9F4F16C05F
S1131010882311F096E911C0772321F09EE8872FE9
S1131020762F05C0662371F096E8862F70E060E0A5
S11310302AF09A95660F771F881FDAF7880F96951E
S1131040879597F9089557FD9058440F551F59F007
S11310505F3F71F04795880F97FB991F61F09F3FA1
S113106079F087950895121613061406551FF2CFCA
S11310704695F1DF08C0161617061806991FF1CF1A
S113108086957105610508940895E894BB27662741
S11310907727CB0197F908950BD078C069D028F051
S11310A06ED018F0952309F05AC05FC01124EECF1A
S11310B0CADFA0F3959FD1F3950F50E0551F629FAF
S11310C0F001729FBB27F00DB11D639FAA27F00D9D
S11310D0B11DAA1F649F6627B00DA11D661F829FC4
S11310E02227B00DA11D621F739FB00DA11D621FA9
S11310F0839FA00D611D221F749F3327A00D611DC6
S1131100231F849F600D211D822F762F6A2F1124A7
S11311109F5750408AF0E1F088234AF0EE0FFF1FFA
S1131120BB1F661F771F881F91505040A9F79E3F31
S1131130510570F014C0AACF5F3FECF3983EDCF386
S1131140869577956795B795F795E7959F5FC1F76E
S1131150FE2B880F911D9695879597F9089597F919
S11311609F6780E870E060E008959FEF80EC089549
S113117000240A9416161706180609060895002472
S11311800A9412161306140605060895092E0394EC
S1131190000C11F4882352F0BB0F40F4BF2B11F460
S11311A060FF04C06F5F7F4F8F4F9F4F089597FB81
S11311B0072E16F4009406D077FD08D00BD007FC58
S11311C005D03EF4909581959F4F08957095619553
S11311D07F4F0895AA1BBB1B51E107C0AA1FBB1F69
S11311E0A617B70710F0A61BB70B881F991F5A95AF
S11311F0A9F780959095BC01CD010895F894FFCF8F
S10B12000000803F0000803F64
S9030000FC
